:020000040000FA
:100000000C94DB000C9403010C9403010C94030189
:100010000C9403010C9403010C9403010C94030150
:100020000C9403010C9403010C9403010C94030140
:100030000C9403010C9403010C9403010C94030130
:100040000C94E0050C9403010C94AE050C94880507
:100050000C9403010C9403010C9403010C94030110
:100060000C942A060C94030100407A10F35A00A065
:10007000724E18090010A5D4E80000E87648170071
:1000800000E40B54020000CA9A3B000000E1F505B1
:10009000000080969800000040420F000000A086FB
:1000A00001000000102700000000E803000000002D
:1000B0006400000000000A000000000001000000D1
:1000C00000002C76D888DC674F0823DFC1DFAE59EB
:1000D000E1B1B796E5E3E453C63AE651997696E87E
:1000E000E6C28426EB898C9B62ED407C6FFCEFBC02
:1000F0009C9F40F2BAA56FA5F490055A2AF75C932D
:100100006B6CF9676DC11BFCE0E40D47FEF520E662
:10011000B500D0ED902E0300943577050080841E45
:10012000080000204E0A000000C80C333333330FA0
:10013000986E12831141EF8D2114893BE65516CF3D
:10014000FEE6DB18D1844B381BF77C1D901DA4BB49
:10015000E424203284725E228100C9F124ECA1E5FE
:100160003D27000000080002010000030407000012
:1001700000000000000000000000250028002B0007
:1001800000000000240027002A00040404040404E2
:100190000404020202020202030303030303010236
:1001A0000408102040800102040810200102040805
:1001B00010208808160D11241FBECFEFD8E0DEBF37
:1001C000CDBF23E0A2E4B1E001C01D92A139B20786
:1001D000E1F711E0A0E0B1E0E4E1F9E202C005904E
:1001E0000D92A234B107D9F710E0CAEDD0E004C0F7
:1001F0002197FE010E947612C93DD107C9F70E94DE
:10020000DB080C947D140C940000E0915F02F091E7
:100210006002309729F010925C0210925B02099400
:1002200008950895AF92BF92CF92DF92EF92FF921E
:100230000F931F93CF93DF936C017B018B01040F0E
:10024000151FEB015E01AE18BF08C017D10759F0AA
:100250006991D601ED91FC910190F081E02DC601EC
:100260000995892B79F7C501DF91CF911F910F91E6
:10027000FF90EF90DF90CF90BF90AF900895FC017A
:10028000538D448D252F30E0842F90E0821B930BFB
:10029000541710F0CF96089501970895FC01918DA1
:1002A000828D981761F0A28DAE0FBF2FB11D5D96A4
:1002B0008C91928D9F5F9F73928F90E008958FEF46
:1002C0009FEF0895FC01918D828D981731F0828DFA
:1002D000E80FF11D858D90E008958FEF9FEF089551
:1002E000FC01918D228D892F90E0805C9F4F821BB5
:1002F00091098F73992708958EEA92E00E94700108
:1003000021E0892B09F420E0822F089580E090E01D
:10031000892B29F00E947C0181110C940000089522
:10032000FC01A48DA80FB92FB11DA35ABF4F2C916A
:10033000848D90E001968F739927848FA689B78961
:100340002C93A089B1898C91837080648C93938D58
:10035000848D981306C00288F389E02D80818F7DFB
:1003600080830895EF92FF920F931F93CF93DF93B3
:10037000EC0181E0888F9B8D8C8D98131AC0E889E1
:10038000F989808185FF15C09FB7F894EE89FF89B0
:100390006083E889F98980818370806480839FBF4E
:1003A00081E090E0DF91CF911F910F91FF90EF904E
:1003B0000895F62E0B8D10E00F5F1F4F0F7311275E
:1003C000E02E8C8D8E110CC00FB607FCFACFE88999
:1003D000F989808185FFF5CFCE010E949001F1CF90
:1003E000EB8DEC0FFD2FF11DE35AFF4FF0829FB70D
:1003F000F8940B8FEA89FB8980818062CFCFCF93FD
:10040000DF93EC01888D8823B9F0AA89BB89E8893C
:10041000F9898C9185FD03C0808186FD0DC00FB6E2
:1004200007FCF7CF8C9185FFF2CF808185FFEDCF60
:10043000CE010E949001E9CFDF91CF91089590E025
:10044000FC01EE59FE4F2491FC01E256FE4F34911F
:10045000FC01E657FE4FE491EE23C9F0222339F068
:10046000233001F1A8F4213019F1223029F1F0E014
:10047000EE0FFF1FEA58FE4FA591B4918FB7F89485
:10048000EC91611126C030953E233C938FBF0895B7
:100490002730A9F02830C9F0243049F78091800036
:1004A0008F7D03C0809180008F7780938000DFCFA5
:1004B00084B58F7784BDDBCF84B58F7DFBCF8091F2
:1004C000B0008F778093B000D2CF8091B0008F7D45
:1004D000F9CF3E2BDACF3FB7F89480915302909139
:1004E0005402A0915502B091560226B5A89B05C0B2
:1004F0002F3F19F00196A11DB11D3FBFBA2FA92FA3
:10050000982F8827BC01CD01620F711D811D911D9F
:1005100043E0660F771F881F991F4A95D1F708950A
:100520008F929F92AF92BF92CF92DF92EF92FF9203
:100530004B015C010E946B026B017C010E946B020B
:100540006C197D098E099F09683E734081059105EC
:10055000A8F321E0821A9108A108B10888EEC80E1C
:1005600083E0D81EE11CF11C81149104A104B104A4
:1005700029F7FF90EF90DF90CF90BF90AF909F90C2
:100580008F9008952091C801260F3327331F2134FF
:100590003105ECF420910C02FC0190E080E0243065
:1005A00069F082E00895A091C8012191AC014857FB
:1005B0005E4FA40FB52FB11D2C930196861798F3AB
:1005C0008091C801680F6093C80180E0089581E0C0
:1005D000089510920C0281E080930E0210920D0299
:1005E00061E082E10E941F0261E083E10E941F023C
:1005F000E9EBF0E080818E7F808380818D7F808336
:1006000080E28093B80085E48093BC00089508954B
:10061000E0915E0280915D02E81730F4F0E0EE5B5D
:10062000FE4F808190E008958FEF9FEF08959091A5
:100630005E0280915D022FEF3FEF981748F4E92F9B
:10064000F0E0EE5BFE4F208130E09F5F90935E0212
:10065000C901089580915D0290915E02891B990BFA
:100660000895CF93DF93CB01EA01642F0E94C20269
:10067000CE01DF91CF91089549E350E067E672E043
:100680008BE493E00C943103CF93DF931F92CDB7AB
:10069000DEB7698361E0CE0101960E94C20281E06B
:1006A00090E00F90DF91CF9108950895DC019C9622
:1006B000EC919C979D962C91E21730F4E80FF92F5E
:1006C000F11D848590E008958FEF9FEF0895FC0160
:1006D00094A585A52FEF3FEF981740F4DF01A90FF0
:1006E000B11D1C962C9130E09F5F94A7C90108951D
:1006F000FC0185A594A5891B990B0895CF92DF92E3
:10070000EF92FF920F931F93CF93DF936C01EB0156
:100710007B01E40EF51E10E000E0CE15DF0561F070
:100720006991D601ED91FC910190F081E02DC60117
:100730000995080F191FF1CFC801DF91CF911F91C3
:100740000F91FF90EF90DF90CF90089590E080E0C0
:1007500008958F929F92AF92BF920F931F93CF9362
:10076000DF93CDB7DEB7A1970FB6F894DEBF0FBE0B
:10077000CDBF19A2423008F44AE08E010F5D1F4F31
:10078000842E912CB12CA12CA50194010E9454120D
:10079000E62FB901CA01EA3044F5E05DD801EE93D5
:1007A0008D01232B242B252B79F790E080E01097E7
:1007B00069F0FD0101900020E9F73197AF014A1B74
:1007C0005B0BBD018EEA92E00E941201A1960FB66A
:1007D000F894DEBF0FBECDBFDF91CF911F910F9177
:1007E000BF90AF909F908F900895E95CD7CFCF9244
:1007F000DF92EF92FF92CF93DF936C01990FEE0897
:10080000FF08F7FE23C06DE28EEA92E00E94B2017B
:10081000EC0166277727CB016C197D098E099F09AA
:100820004AE00E94A903C80FD91F42E050E06CE3E0
:1008300071E08EEA92E00E9412018C0F9D1FDF9101
:10084000CF91FF90EF90DF90CF9008954AE0C701DD
:10085000B6010E94A903EC01E8CF0F931F93CF9339
:10086000DF93EC0188819981009759F02A813B81BF
:100870002617370730F081E0DF91CF911F910F915C
:1008800008958B016F5F7F4F0E94A113009759F06D
:10089000998388831B830A832C813D81232B59F7FD
:1008A000FC011082E8CF80E0E7CFEF92FF920F9338
:1008B0001F93CF93DF936115710541F480E0DF91C1
:1008C000CF911F910F91FF90EF9008954115510521
:1008D000B1F07B01EC010C811D81040F151FB801E3
:1008E0000E942D04882351F3288139818C819D81B8
:1008F000B701820F931F0E9467141D830C8381E050
:10090000DECFFC01448155816081718187E593E0F0
:100910000C945504CF93DF93EC0188819981009763
:1009200011F00E941813198218821D821C821B82EA
:100930001A82DF91CF910895CF93DF93EC0141E0CC
:1009400050E06FE371E00E945504811103C0CE01B5
:100950000E948A04CE01DF91CF910895EF92FF9219
:100960000F931F93CF93DF93EC017B018A01BA01B0
:100970000E942D0481110BC0CE010E948A04CE0179
:10098000DF91CF911F910F91FF90EF9008951D83FC
:100990000C83B701888199810E946714F0CFFB0115
:1009A00001900020E9F73197AF01461B570B0C94DB
:1009B000AE04EF92FF920F931F93CF93DF93CDB7C7
:1009C000DEB7A1970FB6F894DEBF0FBECDBF7C0196
:1009D000CB01BA01F70111821082138212821582B3
:1009E00014828E010F5F1F4F22E044E00E941A0D17
:1009F000009789F0BC01C7010E94CF04A1960FB6F1
:100A0000F894DEBF0FBECDBFDF91CF911F910F9144
:100A1000FF90EF900895C7010E948A04EFCFFB0179
:100A2000DC0111961C921E9213961C921E92129734
:100A300015961C921E9214978617970749F06081AD
:100A400071816115710521F0448155810C94AE04CA
:100A50000895FC0180819181009711F00C94181386
:100A60000895CF93DF9385ED8093BC00809184013E
:100A700090918501A0918601B09187010796A11DF3
:100A8000B11D23E0B695A795979587952A95D1F73F
:100A90002091BC0024FD03C010920C0236C040918E
:100AA0008401509185016091860170918701452BE9
:100AB000462B472B69F30097A105B10541F02AE1C8
:100AC0002A95F1F700C00197A109B109E1CF809102
:100AD000830191E0909382018823B9F0C091B8001E
:100AE000D091BA008091BC008A7B8093BC0060E00A
:100AF00082E10E941F0260E083E10E941F020E94C7
:100B0000E902D093BA00C093B800DF91CF91089565
:100B10001F920F920FB60F9211242F933F934F9372
:100B20005F936F937F938F939F93AF93BF93EF9355
:100B3000FF938EEA92E00E949001FF91EF91BF91A6
:100B4000AF919F918F917F916F915F914F913F9165
:100B50002F910F900FBE0F901F9018951F920F921C
:100B60000FB60F9211242F938F939F93EF93FF93C0
:100B7000E091BE02F091BF028081E091C402F09149
:100B8000C50282FD1BC090818091C7028F5F8F7369
:100B90002091C802821741F0E091C702F0E0E255CF
:100BA000FD4F958F8093C702FF91EF919F918F9199
:100BB0002F910F900FBE0F901F9018958081F4CF4A
:100BC0001F920F920FB60F9211242F933F938F9382
:100BD0009F93AF93BF938091630290916402A09121
:100BE0006502B09166023091520226E0230F2D3744
:100BF00058F50296A11DB11D209352028093630205
:100C000090936402A0936502B093660280915302B0
:100C100090915402A0915502B09156020196A11DE7
:100C2000B11D8093530290935402A0935502B09348
:100C30005602BF91AF919F918F913F912F910F904D
:100C40000FBE0F901F90189529E8230F0396A11D42
:100C5000B11DD2CF1F920F920FB60F9211242F9376
:100C60003F934F935F936F937F938F939F93AF9334
:100C7000BF93EF93FF938091B900887F803609F48A
:100C80004AC0F0F5883209F4A7C018F5803109F49C
:100C90009BC0B8F4882309F4F9C0883009F494C0E3
:100CA000FF91EF91BF91AF919F918F917F916F9144
:100CB0005F914F913F912F910F900FBE0F901F901A
:100CC0001895883109F488C0803251F780930B025F
:100CD00014C0803409F49DC040F48033B9F38833E4
:100CE000F9F680930B0285ECB0C0803509F485C01D
:100CF000883509F496C0883499F60E943105D0CF22
:100D0000883909F48CC038F5883729F050F48836D2
:100D100011F0803729F683E080930C0210920A02CA
:100D200057C0883809F47BC0803919F0803809F041
:100D3000B7CF80910A02803408F071C0E0910A02B6
:100D400081E08E0F80930A028091BB00F0E0E653B1
:100D5000FE4F80833DC0803B39F0E0F4803A09F4D7
:100D600079C0883A09F09CCF84E080930C021092FD
:100D7000C9011092C801E0915902F0915A020995F7
:100D80008091C80181110FC081E08093C801109249
:100D9000880109C0803C09F4A6CF883C09F4A3CFA0
:100DA000883B09F07DCFE091C90181E08E0F8093EF
:100DB000C901F0E0E857FE4F80818093BB0090911D
:100DC000C9018091C80129C0809151028093BB0064
:100DD00085EC8093BC0064CF9091500280914F02CB
:100DE000981758F5E091500281E08E0F80935002E1
:100DF000F0E0E15FFD4F8081E9CFE091500281E0BA
:100E00008E0F809350028091BB00F0E0E15FFD4FB8
:100E100080839091500280914F029817C8F285E824
:100E2000D8CFE091500281E08E0F809350028091E4
:100E3000BB00F0E0E15FFD4F808380910E028111E5
:100E40005CCF81E080930D0284EA8093BC00109215
:100E50000C0226CF85EC8093BC0010920C0280918E
:100E60000A02803430F4E0910A02F0E0E653FE4FCB
:100E7000108260910A0270E0E0915702F0915802EE
:100E80008AEC91E0099510920A020ACF10920B02A7
:100E900034CF71E0549A539800000000000033D121
:100EA000549831D1A8940000000000004C9B17D149
:100EB000B2F088944B990894771F60F7549A803069
:100EC00011F0539801C0539A0000000000001BD19C
:100ED0005498A894000000004C9B01D114D100004C
:100EE0000000549A872F9927089580E20895089466
:100EF000881F01C0880FB9F0549A0000000000005C
:100F000018F40000539802C0539A00C0FCD05498C3
:100F1000A8940000000000004C9BE1D012F4882748
:100F200012C0F1D0E7CF549A000000005398EBD0E4
:100F3000992788275498A89400004C9BD0D07AF326
:100F40004B9B81E0E0D000000000549A089581E0BE
:100F50000895CF93DF93EC01862F0E9477078111CC
:100F600008C08FA5811102C083E08FA790E080E0C8
:100F700002C081E090E0DF91CF910895549A539A96
:100F8000C2D05498C0D04C9BAAD05398BCD00895DE
:100F90001F93CF93DF93CDE5D3E01FA50E94BE073B
:100FA0001EA61FA6812FDF91CF911F9108958F93C9
:100FB000F1E0E4EF8F918F934C9B91D0539AA3D0A3
:100FC00096DF882321F4DADF319709F0F3CF9927F0
:100FD0000F9008950895549A96D0539894D05498A9
:100FE00092D04C9B7CD0539A8ED081DF089581E0C3
:100FF0000895AF92BF92DF92EF92FF920F931F93EB
:10100000CF93DF93EB01D62E880F991F81600E944A
:10101000EB0790918C03911105C0811103C082E010
:1010200080938C0389E6E82E83E0F82E10E000E040
:101030005E0181E0A81AB10881E0A016B10609F0AE
:1010400080E00E944907F70181937F010F5F1F4FE6
:101050000D1590F310928903C0938A0310928B03AD
:101060000E94BE078C2FDF91CF911F910F91FF90AF
:10107000EF90DF90BF90AF9008954C9B30D0539A83
:1010800042D035DF089581E00895CF93C0918B035E
:10109000880FCC2371F00E94EB07882341F080E099
:1010A00080938C0381E080938B03CF91089582E03D
:1010B000F7CF0E943D08811101C0C2E0C0938C03AC
:1010C000F1CF539854985B985C98882799274B9B4D
:1010D00008954C9B089581E0089581E00895B0E063
:1010E000A8EC002409D032F40A94E1F71197C9F76B
:1010F000289408C0A89406C0A8944C9901C02894CC
:1011000000000895089598E09A95F1F708950895DC
:10111000EEEAF2E01382128288EE93E0A0E0B0E003
:1011200084839583A683B7832AE031E031832083CB
:1011300025EC30E03587248724EC30E0378726879C
:1011400020EC30E0318B208B21EC30E0338B228B94
:1011500022EC30E0358B248B26EC30E0378B268B6D
:10116000118E128E138E148EEBE4F3E01382128232
:1011700084839583A683B7832CE131E03183208378
:10118000EDE5F3E01382128284839583A683B7830F
:101190008EE291E091838083E7E5F3E01182108293
:1011A000138212821582148250E040E06EE371E0F7
:1011B000CF010C94AE04CF93DF93CDB7DEB7C65406
:1011C000D1090FB6F894DEBF0FBECDBF789484B5B9
:1011D000826084BD84B5816084BD85B5826085BD33
:1011E00085B5816085BD80916E00816080936E00C1
:1011F00010928100809181008260809381008091B3
:101200008100816080938100809180008160809363
:1012100080008091B10084608093B1008091B00023
:1012200081608093B00080917A00846080937A001E
:1012300080917A00826080937A0080917A008E7F1C
:1012400080937A0080917A00806880937A0010926F
:10125000C1001092890310928A0310928C0310929D
:101260008B030E946108E091BE02F091BF0282E010
:101270008083E091BA02F091BB021082E091BC023F
:10128000F091BD0287E680831092C602E091C2020F
:10129000F091C30286E08083E091C002F091C10228
:1012A000808180618083E091C002F091C1028081E1
:1012B00088608083E091C002F091C10280818068E3
:1012C0008083E091C002F091C10280818F7D808394
:1012D00088E20E9445086FE38DE593E00E94A9072C
:1012E00061EE8DE593E00E94A9070E94C80768EEB1
:1012F00073E080E090E00E94900288E20E9445083E
:1013000060E08DE593E00E94A9070E94C80761E0B4
:1013100070E088E290E00E94F90780918A03909142
:101320008903891B990B1816190644F48DE593E07F
:101330000E94670390936202809361026AEF70E0FB
:1013400080E090E00E9490028091610290916202A0
:101350000E94F70388E20E9445086DE38DE593E063
:101360000E94A9076CE08DE593E00E94A9070E9406
:10137000C80788E20E9445086DE38DE593E00E946E
:10138000A9070E94C80761E070E088E290E00E942F
:10139000F90780918A0390918903891B990B18168C
:1013A000190644F48DE593E00E946703909362026E
:1013B00080936102E4EAF1E02491E0E9F1E08491B4
:1013C000882399F090E0880F991FFC01E058FE4FA8
:1013D000A591B491FC01EA58FE4F859194918FB785
:1013E000F894EC91E22BEC938FBF6AEF70E080E011
:1013F00090E00E94900280916102909162020E94AE
:10140000F70310925E0210925D0210925C0210923D
:101410005B020E94E90285E091E090935A0280937A
:10142000590281E191E090935802809357028CE138
:101430008093BA008CE393E09093600280935F0204
:101440009E012D5D3F4F19017E013BE2E30EF11C31
:10145000BE01635C7F4F21967FAF6EAF21976EE335
:1014600071E087E593E00E94CF0488E20E9445087E
:1014700065E38DE593E00E94A9070E94C80761E03B
:1014800070E088E290E00E94F90780918A039091D1
:101490008903891B990B181619060CF050C28DE5AB
:1014A00093E00E9467039C0144E0359527954A9597
:1014B000E1F723708370A22FA80FBB27BB1F1697DD
:1014C00009F040C260E086E00E941F0288E20E94AC
:1014D000450860E28DE593E00E94A9070E94C807D5
:1014E00068E070E088E290E00E94F90780918A034A
:1014F00090918903891B990B08974CF18E010D5E21
:101500001F4F68018DE593E00E946703F601819308
:1015100091936F012E163F06A9F7F101D80112969B
:10152000BC912396BFAF239722961FAE2297D80176
:101530008D919C9123962EAD3FAD2397822B932BBB
:10154000819391930C5F1F4FC016D10639F781012B
:10155000D8016D917D918D01072E000C880B990BA0
:101560000E94AF0F20E030E040E858E30E940E10E8
:10157000AB01BC01C7010E94D904B701CE0101969D
:101580000E940F05CE0101960E949C040E948104D6
:10159000CE0101960E942905C7010E942905E01687
:1015A000F106B1F688E20E94450868E28DE593E015
:1015B0000E94A9070E94C80766E070E088E290E0F8
:1015C0000E94F90780918A0390918903891B990BE6
:1015D00006970CF4D4C18E01095C1F4F8DE593E092
:1015E0000E946703F80181938F0121962EAD3FADD4
:1015F00021972E173F0791F76FA978ADC9ACDAACE8
:101600000BAD1CAD072E000C880B990B0E94AF0F81
:1016100020E030E048EC52E40E9482112B013C01B2
:10162000B601DD0C880B990B0E94AF0F20E030E073
:1016300048EC52E40E9482114B015C01B801110F89
:10164000880B990B0E94AF0F20E030E048EC52E489
:101650000E94821127966CAF7DAF8EAF9FAF279708
:10166000A3019201C301B2010E940E102B013C01A3
:10167000A5019401C501B4010E940E109B01AC01AB
:10168000C301B2010E9416114B015C0127962CADDB
:101690003DAD4EAD5FAD2797CA01B9010E940E1056
:1016A0009B01AC01C501B4010E9416110E94FF11FB
:1016B0002B013C012091AA023091AB024091AC0277
:1016C0005091AD020E9415112FE632E143E85AE332
:1016D0000E9416114B015C0120E030E0A9010E943C
:1016E000F411181624F0B7FAB094B7F8B0944092F9
:1016F000AA025092AB026092AC027092AD02B501A8
:10170000A401C7010E94D904B701CE0101960E942D
:101710000F05CE0101960E949C040E948104CE0117
:1017200001960E942905C7010E94290584E40E94B0
:10173000450834E23DAF1EAE42E050E0BE01635CBE
:101740007F4F8DE593E00E947E030E94C80766E00C
:1017500070E084E490E00E94F90780918A03909100
:101760008903891B990B06976CF004EA12E08DE55A
:1017700093E00E946703D8018D938D01B2E00A3A8D
:101780001B07A9F72091A4023091A5023227232735
:101790003227A7E1B1E10E9406112EE095958795C9
:1017A000779567952A95D1F7645971418109910917
:1017B0000E94AF0F20E030E048EC52E40E9482111A
:1017C0006093A0027093A1028093A2029093A3025F
:1017D0002091A7023091A802322723273227A1E7C0
:1017E000B2E00E9406113CE0969587957795679543
:1017F0003A95D1F70E94AD0F20E030E048EC52E47A
:101800000E948211AB01BC01CE0101960E94D90455
:101810004091A0025091A1026091A2027091A30296
:10182000CE01C1960E94D904BE016F5C7F4FC701F3
:101830000E940F05C7010E949C048C014D815E81AE
:1018400069817A810E945504811103C0C8010E94F8
:101850008A04C8010E949C040E948104C7010E945E
:101860002905CE01C1960E942905CE0101960E944C
:10187000290510E0812F806480937C0080917A009C
:10188000806480937A0080917A0086FDFCCF8091FD
:101890007800909179001CA61BA61EA61DA618AA6A
:1018A0001FA64AE0BE016F5F7F4F0E94380DBE0148
:1018B0006F5F7F4FC7010E94CF04B701CE01019631
:1018C0000E940F05CE0101960E949C040E94810493
:1018D000CE0101960E942905C7010E9429051F5FBC
:1018E000143041F6A0905703B0905803A114B104EE
:1018F00049F000915B0310915C036501011511052E
:1019000009F045C000915B0310915C0301151105BE
:1019100009F079C01092670264E170E080E090E025
:101920000E94900220E030E0232B09F498CD0E9421
:101930007C01882309F493CD0E94000090CD80E0C3
:1019400020E0B9CD2330C9F48330B9F02FB7F89433
:1019500060916302709164028091650290916602C9
:101960002FBF28EC30E040E050E00E945412643673
:1019700071058105910508F0A5CD61E0A4CD10E0C9
:1019800000E0D12CC12C70E060E03CCE6401460147
:10199000EFEF8E1A9E0AD6018C91082E000C990B3F
:1019A0000E94940F892B91F7015011090A0D1B1DFC
:1019B000F8018081082E000C990B0E94940F892B4E
:1019C00031F00C151D0518F001501109F1CFA801D7
:1019D0004F5F5F4F4C195D0950935C0340935B036D
:1019E000AC14BD0420F4B601C5010E945E14E09160
:1019F0005703F091580380915B0390915C03E80FCB
:101A0000F91F10827FCF0833110510F008E310E0B2
:101A10006091570370915803A80187E692E00E94F5
:101A20006E14F801E959FD4F108276CF87E593E0F7
:101A30000C942905EF920F931F93CF93DF93E80146
:101A400034E047FD34E1042E000C550B57FF03C072
:101A5000519541955109E32E022F242FAE010E948A
:101A60005D0DCE01DF91CF911F910F91EF90089501
:101A7000BB274A3031F4992322F4BDE29095819539
:101A80009F4F0C94440DBB27FB015527AA27880FB5
:101A9000991FAA1FA41710F0A41B83955051B9F7E2
:101AA000A05DAA3308F0A95DA193009779F7B11161
:101AB000B1931192CB010C949D0FA9E0B0E0E3E645
:101AC000FDE00C94D5106A01F22EB02E102FFBE32E
:101AD000AF2EA01608F41BE31F5F012F27E0AE0115
:101AE0004F5F5F4F0E94BC0EBC018981982F997097
:101AF000913009F43FC09BE2E1FC04C09E2D91703F
:101B0000E0FC3AC05E2D5071E82FE87083FF46C0BC
:101B100084E0911101C083E0EF2DE81B8F1508F0E0
:101B2000E0E0D6018E2F20E2552351F1992329F0D0
:101B3000D6019C93C60101966C0196012D5F3F4F23
:101B4000E2FE24C08EE4D6018C9391E411969C931E
:101B5000119712968C93D9018E2F90E281111BC0A0
:101B6000E20FF32FF11D10828EEF9FEF2996ECE02C
:101B70000C94F1109DE2C6CF90E2C4CF2D9381501A
:101B80008111FCCFCE0ED11CE0E0D0CF8EE6D60185
:101B90008C9391E6DBCF9D938150E0CF482F44702A
:101BA00082FF3DC084E0911101C083E08F1510F4E5
:101BB000EF2DE81BD6018E2F20E2552309F1992342
:101BC00029F0D6019C93C60101966C0196012D5F08
:101BD0003F4FE2FE1BC089E4D6018C938EE4119640
:101BE0008C93119786E412968C93D9018E2F90E2F4
:101BF000882309F4B5CF9D938150FACF2D9381505E
:101C00008111FCCFCE0ED11CE0E0D9CF89E6D60100
:101C10008C938EE611968C93119786E6E4CF9B0108
:101C200077FF02C030E020E0A1E0B0E0911102C0F7
:101C3000B0E0A0E0F9013196AE0FBF1F8B2C912CC4
:101C4000BB2009F461C05401EFEFAE1ABE0AAA0D21
:101C5000BB1DFA161B0619F014F04F2D4A1B51112B
:101C600088C0E3FC59C07601A42FB0E2A1114FC097
:101C7000C40ED11C992309F45BC040E0D601119633
:101C8000F60190836D01552309F448C0012F060F1A
:101C90009A81582F507184FF03C0913309F4015089
:101CA00010160CF047C0093008F008E0EEE2FE2EF6
:101CB0005B01A01AB10885019194819491082F3F8E
:101CC000320729F4D601FC92F60131966F016217B2
:101CD000730794F1021713077CF5DB01A21BB30B0A
:101CE000AA24A394B12CAC0EBD1EAA0DBB1D119647
:101CF0008C9121503109D601119628153905F4F03F
:101D0000F60180836D01DBCFB12CA12CA0CFF701B0
:101D1000B1937F01A150AACF9111B0CFD601942FDA
:101D200050E302C05D9391509111FCCFC40ED11CC1
:101D300040E0ACCF01E0BACF80E3DBCF621773079E
:101D400031F4963388F4953311F4552369F0F60194
:101D50008083FD01842F90E2811108C0A40FB11D82
:101D60001C9290E080E002CF81E3F1CF919381500B
:101D7000F3CF911183CF8ACF283008F027E03327A3
:101D8000DA01990F311D87FD91600096610571059B
:101D900039F432602E5F3D9330E32A95E1F70895E0
:101DA0009F3F30F080387105610509F03C5F3C5F72
:101DB0003D93913008F08068911DDF93CF931F937E
:101DC0000F93FF92EF92192F987F9695E92F969592
:101DD0009695E90FFF27EE53FF4F99273327EE24FF
:101DE000FF24A701E70105900894079428F4360F13
:101DF000E71EF81E491F511D660F771F881F991F88
:101E00000694A1F70590079428F4E70EF81E491FE1
:101E1000561FC11D770F881F991F661F0694A1F7D3
:101E20000590079428F4F80E491F561FC71FD11DAF
:101E3000880F991F661F771F0694A1F705900794D6
:101E400020F4490F561FC71FD81F990F661F771F11
:101E5000881F0694A9F784911095177041F0D695C4
:101E6000C79557954795F794E7941A95C1F7E8E613
:101E7000F0E06894159015913591659195910590D4
:101E80007FE27395E118F10A430B560BC90BD00999
:101E9000C0F7E10CF11E431F561FC91FD01D7EF471
:101EA000703311F48A95E6CFE894015030F0080FB2
:101EB0000AF40027021708F4202F2395022F7A3303
:101EC00028F079E37D932A95E9F710C07D932A9550
:101ED00089F6069497956795379517951794E118A5
:101EE000F10A430B560BC90BD00998F023957E914C
:101EF00073957A3308F070E37C932013B8F77E91E2
:101F000070617D9330F0839571E37D9370E32A9542
:101F1000E1F71124EF90FF900F911F91CF91DF9186
:101F2000992787FD9095089591110C947B1080322C
:101F300019F089508550C8F70895DC01FC01672F1E
:101F400071917723E1F7329704C07C916D93708390
:101F50006291AE17BF07C8F30895E89409C097FBD4
:101F60003EF490958095709561957F4F8F4F9F4F70
:101F70009923A9F0F92F96E9BB279395F6958795B4
:101F800077956795B795F111F8CFFAF4BB0F11F477
:101F900060FF1BC06F5F7F4F8F4F9F4F16C088231E
:101FA00011F096E911C0772321F09EE8872F762F54
:101FB00005C0662371F096E8862F70E060E02AF095
:101FC0009A95660F771F881FDAF7880F9695879581
:101FD00097F90895990F0008550FAA0BE0E8FEEF56
:101FE00016161706E807F907C0F012161306E407DD
:101FF000F50798F0621B730B840B950B39F40A26D6
:1020000061F0232B242B252B21F408950A2609F4B3
:10201000A140A6958FEF811D811D08950E9421107A
:102020000C9495100E94871038F00E948E1020F0BA
:10203000952311F00C947E100C94841011240C94B0
:10204000C9100E94A61070F3959FC1F3950F50E040
:10205000551F629FF001729FBB27F00DB11D639F5A
:10206000AA27F00DB11DAA1F649F6627B00DA11D00
:10207000661F829F2227B00DA11D621F739FB00DA6
:10208000A11D621F839FA00D611D221F749F332716
:10209000A00D611D231F849F600D211D822F762FAF
:1020A0006A2F11249F5750409AF0F1F088234AF08C
:1020B000EE0FFF1FBB1F661F771F881F91505040F8
:1020C000A9F79E3F510580F00C947E100C94C91026
:1020D0005F3FE4F3983ED4F3869577956795B7957F
:1020E000F795E7959F5FC1F7FE2B880F911D969599
:1020F000879597F9089599278827089597F99F67F5
:1021000080E870E060E008959FEF80EC089500247F
:102110000A941616170618060906089500240A944C
:1021200012161306140605060895092E0394000CD2
:1021300011F4882352F0BB0F40F4BF2B11F460FF61
:1021400004C06F5F7F4F8F4F9F4F089557FD90588A
:10215000440F551F59F05F3F71F04795880F97FB6B
:10216000991F61F09F3F79F0879508951216130625
:102170001406551FF2CF4695F1DF08C01616170654
:102180001806991FF1CF8695710561050894089589
:10219000E894BB2766277727CB0197F908952F92FC
:1021A0003F924F925F926F927F928F929F92AF92E7
:1021B000BF92CF92DF92EF92FF920F931F93CF9334
:1021C000DF93CDB7DEB7CA1BDB0B0FB6F894DEBFCB
:1021D0000FBECDBF09942A88398848885F846E84F1
:1021E0007D848C849B84AA84B984C884DF80EE803B
:1021F000FD800C811B81AA81B981CE0FD11D0FB644
:10220000F894DEBF0FBECDBFED010895A29FB001CF
:10221000B39FC001A39F700D811D1124911DB29F1A
:10222000700D811D1124911D08955058BB27AA27B8
:102230000E942D110C9495100E94871038F00E9476
:102240008E1020F039F49F3F19F426F40C9484107A
:102250000EF4E095E7FB0C947E10E92F0E94A61087
:1022600058F3BA17620773078407950720F079F4CB
:10227000A6F50C94C8100EF4E0950B2EBA2FA02DE5
:102280000B01B90190010C01CA01A0011124FF2723
:10229000591B99F0593F50F4503E68F11A16F0401E
:1022A000A22F232F342F4427585FF3CF469537951D
:1022B0002795A795F0405395C9F77EF41F16BA0BE2
:1022C000620B730B840BBAF09150A1F0FF0FBB1F90
:1022D000661F771F881FC2F70EC0BA0F621F731FD9
:1022E000841F48F4879577956795B795F7959E3F36
:1022F00008F0B0CF9395880F08F09927EE0F9795C7
:10230000879508950E9496110C9495100E948E1046
:1023100058F00E94871040F029F45F3F29F00C9498
:102320007E1051110C94C9100C9484100E94A610B8
:1023300068F39923B1F3552391F3951B550BBB27F4
:10234000AA2762177307840738F09F5F5F4F220F39
:10235000331F441FAA1FA9F335D00E2E3AF0E0E830
:1023600032D091505040E695001CCAF72BD0FE2F7A
:1023700029D0660F771F881FBB1F2617370748070E
:10238000AB07B0E809F0BB0B802DBF01FF279358C6
:102390005F4F3AF09E3F510578F00C947E100C94FC
:1023A000C9105F3FE4F3983ED4F38695779567951F
:1023B000B795F7959F5FC9F7880F911D96958795FB
:1023C00097F90895E1E0660F771F881FBB1F62171A
:1023D00073078407BA0720F0621B730B840BBA0BD8
:1023E000EE1F88F7E09508950E94EA0F08F48FEF3A
:1023F000089519F416F40C9484100C943F120E9462
:10240000AE10B8F39923C9F3B6F39F57550B87FF66
:102410000E944D120024A0E640EA90018058569593
:10242000979528F4805C660F771F881F20F0261789
:102430003707480730F4621B730B840B20293129BE
:102440004A2BA69517940794202531254A2758F73B
:10245000660F771F881F20F026173707480730F4CC
:10246000620B730B840B200D311D411DA09581F76C
:10247000B901842F9158880F9695879508959F3FAD
:1024800031F0915020F4879577956795B795880F2F
:10249000911D9695879597F9089591505040660F34
:1024A000771F881FD2F70895A1E21A2EAA1BBB1B23
:1024B000FD010DC0AA1FBB1FEE1FFF1FA217B30710
:1024C000E407F50720F0A21BB30BE40BF50B661F26
:1024D000771F881F991F1A9469F7609570958095EA
:1024E00090959B01AC01BD01CF010895EE0FFF1F38
:1024F0000590F491E02D09940F931F93CF93DF93F0
:102500008230910510F482E090E0E0918F03F09129
:10251000900330E020E0B0E0A0E0309799F421157E
:10252000310509F44AC0281B390B24303105D8F590
:102530008A819B816115710589F1FB0193838283F7
:10254000FE0111C040815181028113814817590752
:10255000E0F04817590799F4109761F012960C9320
:10256000129713961C933296CF01DF91CF911F9152
:102570000F91089500938F0310939003F4CF2115CA
:10258000310551F04217530738F0A901DB019A01D8
:10259000BD01DF01F801C1CFEF01F9CF90939003A6
:1025A00080938F03CDCFFE01E20FF31F81939193B0
:1025B0002250310939832883D7CF20918D03309160
:1025C0008E03232B41F420910201309103013093BB
:1025D0008E0320938D03209100013091010121157C
:1025E000310541F42DB73EB74091040150910501EA
:1025F000241B350BE0918D03F0918E03E217F30756
:10260000A0F42E1B3F0B2817390778F0AC014E5F62
:102610005F4F2417350748F04E0F5F1F50938E030E
:1026200040938D03819391939FCFF0E0E0E09CCFA6
:10263000CF93DF930097E9F0FC0132971382128267
:10264000A0918F03B0919003ED0130E020E010974E
:10265000A1F420813181820F931F20918D0330914D
:102660008E032817390709F061C0F0938E03E093B9
:102670008D03DF91CF910895EA01CE17DF07E8F5CA
:102680004A815B819E0141155105B1F7E901FB8348
:10269000EA8349915991C40FD51FEC17FD0761F4E6
:1026A000808191810296840F951FE9019983888327
:1026B000828193819B838A83F0E0E0E012968D9182
:1026C0009C9113970097B9F52D913C911197CD01ED
:1026D0000296820F931F20918D0330918E0328174D
:1026E000390739F6309751F51092900310928F0305
:1026F000B0938E03A0938D03BCCFD383C28340815C
:102700005181840F951FC817D90761F44E5F5F4F41
:1027100088819981480F591F518340838A819B8109
:10272000938382832115310509F0B0CFF093900394
:10273000E0938F039ECFFD01DC01C0CF1382128294
:10274000D7CFB0E0A0E0E7EAF3E10C94D1108C0120
:10275000009751F4CB010E947C128C01C801CDB7C7
:10276000DEB7E0E10C94ED10FC01E60FF71F9C01D1
:1027700022503109E217F30708F49DC0D901CD9129
:10278000DC911197C617D70798F0C530D10530F303
:10279000CE0104978617970708F3C61BD70B22971D
:1027A000C193D1936D937C93CF010E941813D6CF20
:1027B0005B01AC1ABD0A4C018C0E9D1EA0918F03CB
:1027C000B0919003512C412CF12CE12C109731F554
:1027D00080918D0390918E038815990509F05CC056
:1027E0004616570608F058C08091000190910101EB
:1027F000009741F48DB79EB74091040150910501B7
:10280000841B950BE817F90708F055C0F0938E0369
:10281000E0938D03F90171836083A0CF8D919C912A
:10282000119712966C90129713967C901397A81597
:10283000B90559F56C0142E0C40ED11CCA14DB0481
:1028400020F1AC014A195B09DA011296159780F064
:102850006282738251834083D9016D937C93E1142A
:10286000F10471F0D7011396FC93EE93129776CF93
:1028700022968C0F9D1FF90191838083F301EFCF86
:10288000F0939003E0938F0369CF4816590608F43C
:102890002C017D01D3019ACFCB010E947C127C01D7
:1028A000009749F0AE01B8010E945E14C8010E9471
:1028B0001813870153CF10E000E050CFFB01DC017B
:1028C00002C001900D9241505040D8F70895FB018D
:1028D000DC0101900D920020E1F70895FB01DC017D
:1028E0004150504048F001900D920020C9F701C0BE
:1028F0001D9241505040E0F7089510E0CAEDD0E03D
:1029000004C0FE010E9476122196CB3DD107C9F783
:10291000F894FFCF00009103800000000000B20196
:1029200012013F01FF0170014E0162010000000031
:1029300044033103A60307032A0317030803000017
:102940000000A9077E03A603550378036703560317
:062950000D0A002000004A
:107800000C94343C0C94513C0C94513C0C94513CE1
:107810000C94513C0C94513C0C94513C0C94513CB4
:107820000C94513C0C94513C0C94513C0C94513CA4
:107830000C94513C0C94513C0C94513C0C94513C94
:107840000C94513C0C94513C0C94513C0C94513C84
:107850000C94513C0C94513C0C94513C0C94513C74
:107860000C94513C0C94513C11241FBECFEFD8E036
:10787000DEBFCDBF11E0A0E0B1E0EAE8FFE702C063
:1078800005900D92A230B107D9F712E0A2E0B1E065
:1078900001C01D92AD30B107E1F70E942D3D0C945F
:1078A000C33F0C94003C982F95959595959595958B
:1078B000905D8F708A307CF0282F295A8091C0000B
:1078C00085FFFCCF9093C6008091C00085FFFCCF60
:1078D0002093C6000895282F205DF0CF982F809127
:1078E000C00085FFFCCF9093C6000895EF92FF92F1
:1078F0000F931F93EE24FF2487018091C00087FD22
:1079000017C00894E11CF11C011D111D81E2E8164D
:1079100081EAF80687E0080780E0180770F3E09135
:107920000401F091050109958091C00087FFE9CF1E
:107930008091C6001F910F91FF90EF9008950E94D3
:10794000763C982F8091C00085FFFCCF9093C600B5
:1079500091362CF490330CF09053892F089597555D
:10796000892F08951F930E949F3C182F0E949F3CCF
:107970001295107F810F1F9108951F93182F882350
:1079800021F00E94763C1150E1F71F9108951F935A
:10799000182F0E94763C803249F0809103018F5F5E
:1079A000809303018530C1F01F9108958091C0003C
:1079B00085FFFCCF84E18093C6008091C00085FFE5
:1079C000FCCF1093C6008091C00085FFFCCF80E102
:1079D0008093C6001F910895E0910401F091050184
:1079E00009951F9108950E94763C803241F0809164
:1079F00003018F5F80930301853081F008958091AA
:107A0000C00085FFFCCF84E18093C6008091C00058
:107A100085FFFCCF80E18093C6000895E0910401CA
:107A2000F09105010995089548EC50E08823A1F0F4
:107A30002D9A28EE33E0FA013197F1F721503040CA
:107A4000D1F72D9828EE33E0FA013197F1F7215064
:107A50003040D1F7815061F708953F924F925F9285
:107A60006F927F928F929F92AF92BF92CF92DF924E
:107A7000EF92FF920F931F93CF93DF93000082E06A
:107A80008093C00080E18093C4001092C50088E11B
:107A90008093C10086E08093C2005098589A259A3E
:107AA00081E00E94143D24E1F22E9EE1E92E85E959
:107AB000D82E0FE0C02E10E1B12EAA24A394B1E479
:107AC0009B2EA6E58A2EF2E57F2EE0E26E2E79E46B
:107AD000572E63E5462E50E5352E0E94763C8033C6
:107AE000B1F18133B9F1803409F46FC0813409F404
:107AF00076C0823409F485C0853409F488C08035A5
:107B000031F1823521F1813511F1853509F485C0D6
:107B1000863509F48DC0843609F496C0843709F49B
:107B200003C1853709F472C1863709F466C08091B4
:107B300003018F5F80930301853079F6E0910401A2
:107B4000F091050109950E94763C803351F60E9420
:107B5000F33CC3CF0E94763C803249F78091C0004D
:107B600085FFFCCFF092C6008091C00085FFFCCF5E
:107B70009092C6008091C00085FFFCCF8092C60025
:107B80008091C00085FFFCCF7092C6008091C0003C
:107B900085FFFCCF6092C6008091C00085FFFCCFBE
:107BA0005092C6008091C00085FFFCCF4092C60075
:107BB0008091C00085FFFCCF3092C6008091C0004C
:107BC00085FFFCCFB092C60088CF0E94763C8638F5
:107BD00008F4BDCF0E94763C0E94F33C7ECF0E9409
:107BE000763C803809F49CC0813809F40BC1823896
:107BF00009F430C1883909F48FC080E00E94C73C85
:107C00006CCF84E10E94BD3C0E94F33C66CF85E0CE
:107C10000E94BD3C0E94F33C60CF0E94763C809362
:107C200006010E94763C809307010E94F33C55CFE9
:107C30000E94763C803309F411C183E00E94BD3C70
:107C400080E00E94C73C49CF0E94763C80930902A5
:107C50000E94763C8093080280910C028E7F809374
:107C60000C020E94763C853409F409C18091080217
:107C700090910902892B89F000E010E00E94763C87
:107C8000F801E85FFE4F80830F5F1F4F809108026D
:107C9000909109020817190788F30E94763C8032F8
:107CA00009F045CF80910C0280FFF5C0609106017C
:107CB00070910701660F771F7093070160930601AB
:107CC000A0910802B09109021097C9F0E8E0F1E034
:107CD0009B01AD014E0F5F1FF999FECF32BD21BD53
:107CE000819180BDFA9AF99A2F5F3F4FE417F5070B
:107CF00099F76A0F7B1F70930701609306018091CB
:107D0000C00085FFFCCFF092C6008091C00085FFC7
:107D1000FCCFB092C600E1CE83E00E94C73CDDCE2E
:107D200082E00E94C73CD9CE0E94763C8093090233
:107D30000E94763C80930802809106019091070191
:107D4000880F991F90930701809306010E94763C4B
:107D5000853409F49AC080910C028E7F80930C02C6
:107D60000E94763C803209F0B8CE8091C00085FF39
:107D7000FCCFF092C600A0910802B09109021097C2
:107D8000C1F180910C02082F0170182F1695117007
:107D9000E0910601F0910701AF014F5F5F4FBA011B
:107DA00020E030E00023B1F4112339F49491809164
:107DB000C00085FFFCCF9093C6002F5F3F4FCB01E3
:107DC0000196FA012A173B0780F4BC014F5F5F4F11
:107DD000002351F3F999FECFF2BDE1BDF89A90B5B9
:107DE0008091C00085FFFCCFE6CF709307016093C0
:107DF00006018091C00085FDE5CE8091C00085FF21
:107E0000F8CFE0CE81E00E94C73C67CE0E94763C6E
:107E1000803209F08CCE8091C00085FFFCCFF092BB
:107E2000C6008091C00085FFFCCFE092C600809123
:107E3000C00085FFFCCFD092C6008091C00085FFB6
:107E4000FCCFC092C6008091C00085FFFCCFB092ED
:107E5000C60043CE80E10E94C73C3FCE0E94763CE4
:107E60000E94763C182F0E94763C112309F483C0AF
:107E7000113009F484C08FE00E94C73C2ECE80915F
:107E80000C02816080930C02F1CE80910C02816023
:107E900080930C0265CF809107018823880F880B9F
:107EA0008A2180930B028091060190910701880F2F
:107EB000991F90930701809306018091080280FF2B
:107EC00009C08091080290910902019690930902DD
:107ED00080930802F894F999FECF1127E0910601EA
:107EE000F0910701C8E0D1E0809108029091090269
:107EF000103091F40091570001700130D9F303E084
:107F000000935700E8950091570001700130D9F3B4
:107F100001E100935700E8950990199000915700EE
:107F200001700130D9F301E000935700E8951395F3
:107F3000103498F011270091570001700130D9F3E7
:107F400005E000935700E89500915700017001305B
:107F5000D9F301E100935700E8953296029709F0B2
:107F6000C7CF103011F00296E5CF11248091C000E8
:107F700085FFC5CEC8CE8EE10E94C73CAECD85E957
:0C7F80000E94C73CAACDF894FFCF8000FF
:00000001FF
